:020000040800F2
:10000000380400204901000825070008DB06000825
:100010002107000837040008470C00080000000012
:10002000000000000000000000000000DD080008E3
:10003000A905000800000000AD070008F10900084C
:100040006301000863010008630100086301000800
:1000500063010008630100086301000863010008F0
:1000600063010008630100086301000863010008E0
:1000700063010008630100086301000863010008D0
:1000800063010008630100086301000863010008C0
:1000900063010008630100086301000863010008B0
:1000A00063010008630100086301000863010008A0
:1000B0006301000863010008630100086301000890
:1000C0006301000863010008630100086301000880
:1000D00063010008550A0008630100086301000875
:1000E0006301000863010008630100086301000860
:1000F0006301000863010008630100086301000850
:10010000630100086301000863010008630100083F
:10011000630100086301000863010008630100082F
:10012000630100086301000863010008630100081F
:10013000DFF810D000F01AF800480047450D00081D
:10014000AFF3008038040020064880470648004787
:10015000FEE7FEE7FEE7FEE7FEE7FEE7FEE7FEE777
:10016000FEE7FEE7F509000831010008064C074DDF
:1001700006E0E06840F0010394E807009847103477
:10018000AC42F6D3FFF7D8FF1C0E00083C0E000867
:1001900000B591B001214FF4017000F025FB012161
:1001A000084600F011FB00208DF843000E20ADF84A
:1001B000400010A93A4800F0F8F90320039000200D
:1001C00002900A90374801904FF480600790802099
:1001D00005903548009080150690002004904FF45B
:1001E00000500990202008906946304800F031F90D
:1001F00001212E4800F021F900200B9001208DF8FC
:1002000030008DF831004FF460200D9000200E90EA
:1002100003208DF83C000BA923484C3800F072F8FD
:100220004FF4404000F0C4FA0523012211461E4855
:100230004C3800F08FF80523022211461A484C383A
:1002400000F088F805230322114617484C3800F0C7
:1002500081F8012114484C3800F035F8012112488A
:100260004C3800F025F810484C3800F0CFF800BFAB
:100270000D484C3800F03CF80028F9D10A484C38B9
:1002800000F0D4F800BF08484C3800F027F80028E8
:10029000F9D1012104484C3800F0BDF811B000BD7F
:1002A00000080140180000204C24014008000240D2
:1002B00021B1826842F00102826003E0826822F08C
:1002C00001028260704721B1826842F480728260CC
:1002D00003E0826822F48072826070470146002049
:1002E0008A6802F004020AB1012000E00020704791
:1002F000014600208A6802F008020AB1012000E0ED
:100300000020704730B502460020002350680F4C93
:1003100020400D790C6844EA052420435060906821
:100320000B4C2040D1E902542C434D7944EA45045A
:1003300020439060D06A20F470000C7C641EE4B20C
:10034000234340EA0350D06230BD0000FFFEF0FFBF
:10035000FDF7F1FFF0B504460D4600200021092D00
:1003600011DDE068A5F10A0606EB4607072606FA46
:1003700007F18843A5F10A0606EB460603FA06F1E3
:100380000843E0600CE0206905EB4507072606FA04
:1003900007F1884305EB450603FA06F1084320619F
:1003A000072A0FDA606B561E06EB86071F2606FA31
:1003B00007F18843561E06EB860605FA06F1084348
:1003C000606322E00D2A0FDA206BD61F06EB86074A
:1003D0001F2606FA07F18843D61F06EB860605FAA4
:1003E00006F10843206310E0E06AA2F10D0606EB77
:1003F00086071F2606FA07F18843A2F10D0606EBD1
:10040000860605FA06F10843E062F0BD816841F016
:1004100008018160704721B1826842F4A0028260C5
:1004200003E0826822F4A00282607047816841F094
:1004300004018160704700BFFEE721B1026842F00D
:100440000102026004E002684FF6FE731A40026087
:10045000704710B50022026847F6F0739A430C6AA1
:100460008B6823430C6923434C6923438C692343E2
:10047000CC6923434C6A23438C6A23431A430260AA
:10048000CB6843600B6883604B68C36010BD00009D
:1004900008B50121082000F0A7F94FF48050ADF80D
:1004A000000010208DF8030003208DF8020069463B
:1004B000044800F07AF84FF48051024800F00BF93C
:1004C00008BD0000000C014010B5FFF7E1FF00F08F
:1004D00053F800F023F810BD08B54FF48050ADF884
:1004E000000048208DF803006946024800F05DF8DE
:1004F00008BD0000000C014008B54FF48050ADF875
:10050000000010208DF8030003208DF802006946DA
:10051000014800F04AF808BD000C014010B5002465
:10052000FFF7DAFF04E0601CC4B2012000F0E4FB36
:100530004FF480510F4800F0C3F808B1642CF2DB8F
:10054000642C01DB012010BD002404E0601CC4B257
:10055000012000F0D1FB4FF48051064800F0B0F8C4
:1005600008B9F02CF2DBF02C01DB0120EBE70020D6
:10057000E9E70000000C014010B5FFF7BDFF4FF4A4
:100580008051084800F0A5F840F2EE2000F0B4FBDE
:100590004FF48051034800F09EF80F2000F0ACFBB0
:1005A00010BD0000000C014070472DE9F0410246EB
:1005B00000250026002000230024002791F803C016
:1005C0000CF00F0591F803C00CF0100CBCF1000FFB
:1005D00003D091F802C04CEA050591F800C0BCF1C7
:1005E000000F31D0146800202BE04FF0010C0CFA02
:1005F00000F3B1F800C00CEA03069E4220D183004C
:100600004FF00F0C0CFA03F7BC4305FA03FC4CEA5D
:10061000040491F803C0BCF1280F06D14FF0010C7F
:100620000CFA00FCC2F814C00AE091F803C0BCF157
:10063000480F05D14FF0010C0CFA00FCC2F810C0B5
:10064000401C0828D1D31460B1F800C0BCF1FF0FE2
:1006500034DD546800202EE000F1080C4FF0010852
:1006600008FA0CF3B1F800C00CEA03069E4221D14F
:1006700083004FF00F0C0CFA03F7BC4305FA03FCA0
:100680004CEA040491F803C0BCF1280F05D100F135
:10069000080C08FA0CF8C2F8148091F803C0BCF1F9
:1006A000480F07D100F1080C4FF0010808FA0CF8C8
:1006B000C2F81080401C0828CED35460BDE8F081F9
:1006C0000246002093680B400BB1012000E000209F
:1006D0007047416170470161704700BFFEE700004D
:1006E00008B50121082000F07FF810208DF80300E4
:1006F0004FF4E040ADF8000003208DF80200694699
:100700000648FFF752FF4FF440510448FFF7E3FF5C
:100710004FF480410148FFF7DCFF08BD000C0140A9
:1007200000BFFEE77047000070B5002100230F22D4
:10073000C47804B3154C246804F4E064C4F5E064A0
:10074000210AC1F10403CA40447804FA03F1847811
:100750001440214309010E4C0678A155047804F099
:100760001F050124AC4005786D11AD0005F1E025B1
:10077000C5F8004109E0047804F01F050124AC40ED
:10078000044D0678761145F8264070BD0CED00E06A
:1007900000E400E080E100E002490143024A116008
:1007A000704700000000FA050CED00E07047000003
:1007B00001460020034A506820F44040084350603E
:1007C000704700000010024029B1064A52690243F6
:1007D000044B5A6104E0034A52698243014B5A6157
:1007E000704700000010024029B1064A9269024396
:1007F000044B9A6104E0034A92698243014B9A6177
:10080000704700000010024030B500210022002493
:1008100000232D4D6D6805F00C0121B1042905D090
:10082000082923D105E0294D056022E0274D056008
:100830001FE0254D6D6805F47012234D6D6805F4B9
:100840008034022505EB92421CB9214D55430560C9
:100850000BE01D4D6D6805F400351DB11C4D554371
:10086000056002E0194D5543056002E0174D056033
:1008700000BF00BF144D6D6805F0F0010909154D6A
:100880006B5C0568DD4045600F4D6D6805F4E06107
:10089000090A104D6B5C4568DD4085600A4D6D6846
:1008A00005F46051C90A0B4D6B5C4568DD40C560BD
:1008B000054D6D6805F44041890B074D6B5CC568BB
:1008C000B5FBF3F5056130BD0010024000127A005F
:1008D00000093D001E0000202E000020704710B5CA
:1008E00000F002F810BD00000CB50020019000904F
:1008F0003348006840F480303149086000BF304818
:10090000006800F4003000900198401C01900098AD
:1009100018B90198B0F5A06FF1D12948006800F42A
:10092000003010B10120009001E0002000900098FC
:10093000012843D12348006840F010002149086095
:100940000846006820F0030008600846006840F090
:10095000020008601A484068194948600846406823
:1009600048600846406840F4806048600846406837
:1009700020F47C1048600846406840F4E810486065
:100980000846006840F08070086000BF0C480068AE
:1009900000F000700028F9D00948406820F00300FA
:1009A000074948600846406840F00200486000BFC0
:1009B0000348406800F00C000828F9D10CBD000085
:1009C0000010024000200240042808D14FF0E0212E
:1009D000096941F004014FF0E022116107E04FF096
:1009E000E021096921F004014FF0E0221161704714
:1009F0007047000010B51348006840F0010011492D
:100A0000086008464068104908400E49486008469A
:100A100000680E4908400B4908600846006820F449
:100A2000802008600846406820F4FE0048604FF4CB
:100A30001F008860FFF753FF4FF000600449086013
:100A400010BD0000001002400000FFF8FFFFF6FE9E
:100A500008ED00E010B540F22551074800F032F8EB
:100A6000012808D1044800F0E9F8C4B240F2255149
:100A7000014800F003F810BD0038014010B5002215
:100A8000002340F66A14A14200D100BF0A120124DB
:100A90009440A3B2DC43048010BD21B1828942F4AA
:100AA0000052828104E082894DF6FF731A408281F0
:100AB00070471AB1838A0B43838202E0838A8B4397
:100AC0008382704770B50246002400230025002071
:100AD00040F66A16B14200D100BFC1F3421501F0E1
:100AE0001F03012606FA03F3012D02D19689334034
:100AF00006E0022D02D1168A334001E0968A334087
:100B00000C12012606FA04F41688344013B10CB115
:100B1000012000E0002070BDF0B50346002400264F
:100B20000025002040F66A17B94200D100BF1846E0
:100B3000C1F3421401F01F06012707FA06F5012C44
:100B400001D10C3004E0022C01D1103000E014304F
:100B50001AB107682F43076002E00768AF430760D8
:100B6000F0BD00002DE9F04786B005460E46002492
:100B7000A24600BFA1460027B08900B100BF2F46A2
:100B80002C8A4CF6FF700440F08804432C82AC8918
:100B90004EF6F3100440B088318908437189084348
:100BA0000443AC81AC8A4FF6FF400440B089044353
:100BB000AC8201A8FFF728FE1F48874202D1DDF86A
:100BC00010A001E0DDF80CA0A88900F4004040B1BD
:100BD0000AEBCA0000EB0A1031684900B0FBF1F8DB
:100BE00007E00AEBCA0000EB0A1031688900B0FB8D
:100BF000F1F86420B8FBF0F004012009642101FB46
:100C00001089A88900F4004040B1322000EBC900EF
:100C1000B0FBF1F000F00700044308E0322000EBE5
:100C200009106421B0FBF1F000F00F0004432C81A7
:100C300006B0BDE8F0870000003801400146888812
:100C4000C0F30800704700BFFEE702E008C8121FAB
:100C500008C1002AFAD170477047002001E001C1A5
:100C6000121F002AFBD1704710B56FF00400FFF788
:100C7000ABFE0A4800680A49B0FBF1F00949087068
:100C80000846007800EB4001C1EBC0104FF6FF7141
:100C900001EAC0000449088010BD000000000020E7
:100CA00000127A0014000020160000200146114AAC
:100CB00012884A434FF0E0235A6100229A611A4693
:100CC000126942F001021A6100BF4FF0E022106980
:100CD00000F001021AB100F48032002AF5D04FF082
:100CE000E022126922F001024FF0E0231A61002293
:100CF0009A617047160000200146114A12784A4353
:100D00004FF0E0235A6100229A611A46126942F0BC
:100D100001021A6100BF4FF0E022106900F00102E9
:100D20001AB100F48032002AF5D04FF0E0221269A7
:100D300022F001024FF0E0231A6100229A6170470D
:100D400014000020FFF790FFFFF7CAFC4FF4A060EB
:100D5000FFF722FD4FF4165000F00AF8FFF718FADB
:100D6000FFF7B2FB03E04FF47A70FFF79FFFFAE75B
:100D700010B586B00446012144F20400FFF734FDAB
:100D80004FF40070ADF8140003208DF81600182001
:100D90008DF8170005A91F48FFF707FC4FF4806086
:100DA000ADF8140004208DF8170005A91948FFF7C5
:100DB000FCFB25208DF8000001208DF803000220A7
:100DC0008DF801008DF802006846FFF7ADFC019434
:100DD0000020ADF80800ADF80A00ADF80C00ADF841
:100DE00010000C20ADF80E00012240F225510A48F7
:100DF000FFF792FE01A90848FFF7B4FE0022402148
:100E00000548FFF756FE01210348FFF746FE06B0EE
:100E100010BD000000080140003801403C0E0008F1
:100E200000000020340000004A0C0008700E00088A
:100E300034000020040400005A0C000800A24A04F8
:100E4000000000000000000001020304060708097A
:100E5000000000000000000000000000000001028F
:100E6000030401020304060708090204060800003F
:0400000508000131BD
:00000001FF
