:020000040800F2
:100000003804002049010008B10300085703000824
:10001000AD03000833020008490900080000000091
:10002000000000000000000000000000BD06000805
:100030003702000800000000B3030008D1070008E1
:100040006301000863010008630100086301000800
:1000500063010008630100086301000863010008F0
:1000600063010008630100086301000863010008E0
:1000700063010008630100086301000863010008D0
:1000800063010008630100086301000863010008C0
:1000900063010008630100086301000863010008B0
:1000A00063010008630100086301000863010008A0
:1000B0006301000863010008630100086301000890
:1000C0006301000863010008630100086301000880
:1000D0006301000863010008630100086301000870
:1000E0006301000863010008630100086301000860
:1000F0006301000863010008630100086301000850
:10010000630100086301000863010008630100083F
:10011000630100086301000863010008630100082F
:10012000630100086301000863010008630100081F
:10013000DFF810D000F04CF8004800474D0D0008E3
:10014000AFF3008038040020064880470648004787
:10015000FEE7FEE7FEE7FEE7FEE7FEE7FEE7FEE777
:10016000FEE7FEE7D5070008310100082DE9F05F42
:100170000546002092469B46884606468146402416
:100180001BE0284641464746224600F042F85346C7
:100190005A46C01A914110D311461846224600F023
:1001A00029F82D1A67EB01084F462246012000214D
:1001B00000F020F817EB00094E41201EA4F10104C5
:1001C000DFDC484631462A464346BDE8F09F000042
:1001D000064C074D06E0E06840F0010394E8070094
:1001E00098471034AC42F6D3FFF7A6FF180E00086C
:1001F000380E0008202A04DB203A00FA02F1002021
:1002000070479140C2F1200320FA03F31943904054
:100210007047202A04DB203A21FA02F000217047BF
:1002200021FA02F3D040C2F120029140084319465E
:10023000704700BFFEE770472DE9F04102460025F8
:100240000026002000230024002791F803C00CF0B2
:100250000F0591F803C00CF0100CBCF1000F03D097
:1002600091F802C04CEA050591F800C0BCF1000FFE
:1002700031D0146800202BE04FF0010C0CFA00F391
:10028000B1F800C00CEA03069E4220D183004FF073
:100290000F0C0CFA03F7BC4305FA03FC4CEA040408
:1002A00091F803C0BCF1280F06D14FF0010C0CFAF5
:1002B00000FCC2F814C00AE091F803C0BCF1480F7A
:1002C00005D14FF0010C0CFA00FCC2F810C0401C24
:1002D0000828D1D31460B1F800C0BCF1FF0F34DDA1
:1002E000546800202EE000F1080C4FF0010808FAD5
:1002F0000CF3B1F800C00CEA03069E4221D1830042
:100300004FF00F0C0CFA03F7BC4305FA03FC4CEA60
:10031000040491F803C0BCF1280F05D100F1080CCA
:1003200008FA0CF8C2F8148091F803C0BCF1480F29
:1003300007D100F1080C4FF0010808FA0CF8C2F8D8
:100340001080401C0828CED35460BDE8F081416184
:1003500070470161704700BFFEE7000008B501214A
:10036000242000F027F84FF48070ADF80000102032
:100370008DF8030003208DF8020069460948FFF755
:100380005BFF4FF480710748FFF7E3FF0420ADF8EF
:10039000000069460448FFF74FFF04210248FFF7B9
:1003A000D8FF08BD000801400014014000BFFEE76F
:1003B0007047704729B1064A92690243044B9A611B
:1003C00004E0034A92698243014B9A61704700003E
:1003D0000010024030B500210022002400232D4DE2
:1003E0006D6805F00C0121B1042905D0082923D13D
:1003F00005E0294D056022E0274D05601FE0254DF1
:100400006D6805F47012234D6D6805F48034022583
:1004100005EB92421CB9214D554305600BE01D4D83
:100420006D6805F400351DB11C4D5543056002E0B3
:10043000194D5543056002E0174D056000BF00BF30
:10044000144D6D6805F0F0010909154D6B5C0568E8
:10045000DD4045600F4D6D6805F4E061090A104DFF
:100460006B5C4568DD4085600A4D6D6805F4605140
:10047000C90A0B4D6B5C4568DD40C560054D6D6874
:1004800005F44041890B074D6B5CC568B5FBF3F57E
:10049000056130BD0010024000127A0000093D00E5
:1004A0001C0000202C00002000B587B0012141F283
:1004B0000400FFF77FFF10208DF81B000420ADF82B
:1004C000180003208DF81A0006A92148FFF7B4FE92
:1004D00010211F48FFF73DFF18208DF81B00A020BA
:1004E000ADF8180003208DF81A0006A91848FFF788
:1004F000A3FE04208DF81B004020ADF8180006A9CB
:100500001348FFF799FE0020ADF810000120ADF868
:100510000C000220ADF80A000020ADF80800ADF88C
:100520001400ADF804004FF48270ADF806004FF4EB
:100530000070ADF80E000020ADF8120001A90548CA
:1005400000F060F80121034800F042F807B000BD58
:10055000000801400030014010B504464FF48050BF
:100560001949086000BF0221184800F03DF8002832
:10057000F9D015490868411E134A116020B90020BE
:1005800000F07CF8C0B210BD2146104800F038F8E9
:100590004FF480500C4908600AE00B490868411E7E
:1005A000094A116020B9012000F068F8C0B2EAE7FA
:1005B0000121064800F018F80028EED0034800F0AA
:1005C0001CF8C0B2DFE70000180000200030014036
:1005D00021B1028842F04002028004E002884FF616
:1005E000BF731A40028070470246002013890B40F7
:1005F0000BB1012000E00020704701468889704758
:100600008181704710B50022028802F441520B88A4
:100610004C8823438C882343CC8823430C89234371
:100620004C8923438C892343CC8923431A4302807A
:10063000838B4FF2FF74234083830B8A038210BDA8
:1006400010B504210C48FFF782FE9F20FFF784FFBE
:100650000020FFF781FF04040020FFF77DFF44EA3C
:1006600000240020FFF778FF044304210248FFF72D
:1006700070FE204610BD00000008014010B5044681
:10068000214602A000F062F9002010BD3C3C2D463E
:100690004C4153482D4552524F522D3E3E2053500F
:1006A0004920B5C8B4FDB3ACCAB1216572726F728E
:1006B000436F6465203D2025640A0000704710B533
:1006C00000F002F810BD00000CB500200190009071
:1006D0003348006840F480303149086000BF30483A
:1006E000006800F4003000900198401C01900098D0
:1006F00018B90198B0F5A06FF1D12948006800F44D
:10070000003010B10120009001E00020009000981E
:10071000012843D12348006840F0100021490860B7
:100720000846006820F0030008600846006840F0B2
:10073000020008601A484068194948600846406845
:1007400048600846406840F4806048600846406859
:1007500020F47C1048600846406840F4E810486087
:100760000846006840F08070086000BF0C480068D0
:1007700000F000700028F9D00948406820F003001C
:10078000074948600846406840F00200486000BFE2
:100790000348406800F00C000828F9D10CBD0000A7
:1007A0000010024000200240042808D14FF0E02150
:1007B000096941F004014FF0E022116107E04FF0B8
:1007C000E021096921F004014FF0E0221161704736
:1007D0007047000010B51348006840F0010011494F
:1007E000086008464068104908400E4948600846BD
:1007F00000680E4908400B4908600846006820F46C
:10080000802008600846406820F4FE0048604FF4ED
:100810001F008860FFF753FF4FF000600449086035
:1008200010BD0000001002400000FFF8FFFFF6FEC0
:1008300008ED00E021B1828942F40052828104E097
:1008400082894DF6FF731A4082817047024600206C
:10085000B1F5007F00D100BF13880B400BB1012020
:1008600000E00020704700002DE9F04786B0054603
:100870000E460024A24600BFA1460027B08900B161
:1008800000BF2F462C8A4CF6FF700440F0880443CA
:100890002C82AC894EF6F3100440B08831890843AD
:1008A000718908430443AC81AC8A4FF6FF40044091
:1008B000B0890443AC8201A8FFF78CFD1F48874232
:1008C00002D1DDF810A001E0DDF80CA0A88900F449
:1008D000004040B10AEBCA0000EB0A103168490041
:1008E000B0FBF1F807E00AEBCA0000EB0A10316830
:1008F0008900B0FBF1F86420B8FBF0F00401200996
:10090000642101FB1089A88900F4004040B1322025
:1009100000EBC900B0FBF1F000F00700044308E071
:10092000322000EB09106421B0FBF1F000F00F0061
:1009300004432C8106B0BDE8F08700000038014078
:10094000C1F308028280704700BFFEE70FB4054B79
:1009500010B503A9044A029800F018F810BC5DF81D
:1009600014FB0000290D00083000002002E008C838
:10097000121F08C1002AFAD170477047002001E019
:1009800001C1121F002AFBD1704700002DE9FF4F63
:100990008DB09B460F460446002606E025280BD066
:1009A0005A460F999047641C761C20780028F5D190
:1009B00011B03046BDE8F08F0025A84601229849C5
:1009C00000E0054314F8013F203B02FA03F008421F
:1009D000F7D120782E2817D114F8010F45F004051F
:1009E0002A280ED06FF02F022078A0F130010929BB
:1009F0000AD808EB880102EB410100EB0108641CF6
:100A0000F2E757F8048B641C20786C280DD004DCC6
:100A10004C2812D06A2811D104E074280DD07A280D
:100A20000CD10AE045F4001507E0617845F4801523
:100A3000814202D1641C05F58015641C2078692868
:100A400044D008DC0028B3D0582867D063280FD0E2
:100A5000642808D13AE0702865D0732812D0752830
:100A60005AD078285AD05A460F999047761CD5E02C
:100A700017F8040B8DF8000000208DF80100E946FE
:100A8000012003E057F8049B4FF0FF3069074FF057
:100A9000000501D40AE06D1C45450DDA8542FADBFC
:100AA00019F805100029F6D106E06D1C8542FCDB23
:100AB00019F805100029F8D12E4404E019F8010BAB
:100AC0005A460F9990476D1EF8D2A7E00A200021E0
:100AD000CDE90801C5F3025002280CD001CFC1179F
:100AE000021E71F100020CDA0023D0EB030063EB6D
:100AF00001012D2208E0FF1D27F00707F7E802019A
:100B0000EEE72A0504D52B228DF8282001223CE0AF
:100B1000EA073AD02022F7E70A2000E0102000215F
:100B2000CDE9080107E01020002145F00405CDE9DA
:100B300008014FF00808C5F30250022810D001CF79
:100B400000214FF0000A2A0720D52278702A0DD004
:100B5000DDE908C38CF0100C5CEA030C0CD015E046
:100B6000FF1D27F00707F7E80201EAE740228DF8AA
:100B700028204FF0010A0CE050EA010306D0302390
:100B80008DF828308DF82920022292462278582AA2
:100B900004D024A20DF120090B9209E026A2F9E766
:100BA000DDE90823FFF7E2FA0B9B9B5C09F8013DA6
:100BB00050EA0102F4D1ADEB09002030089068073B
:100BC00001D44FF001080899884503DD0898A8EB87
:100BD000000000E000208046002506E00AA85A46F2
:100BE000405D0F9990476D1C761C5545F6DB04E07F
:100BF00030205A460F999047761CB8F10001A8F1B1
:100C00000108F5DC05E019F8010B5A460F999047E9
:100C1000761C0899481E08900029F4DC641CC4E680
:100C200009280100303132333435363738396162C2
:100C30006364656600000000303132333435363786
:100C400038394142434445460000000010B56FF07A
:100C50000400FFF7A9FD0A4800680A49B0FBF1F05B
:100C6000094908700846007800EB4001C1EBC0104C
:100C70004FF6FF7101EAC0000449088010BD000072
:100C80000000002000127A0014000020160000204E
:100C90000146114A12884A434FF0E0235A6100226C
:100CA0009A611A46126942F001021A6100BF4FF0C0
:100CB000E022106900F001021AB100F48032002A2B
:100CC000F5D04FF0E022126922F001024FF0E0234C
:100CD0001A6100229A617047160000200146114AED
:100CE00012784A434FF0E0235A6100229A611A4673
:100CF000126942F001021A6100BF4FF0E022106950
:100D000000F001021AB100F48032002AF5D04FF051
:100D1000E022126922F001024FF0E0231A61002262
:100D20009A6170471400002070B504460D46E1B288
:100D30000548FFF705FE00BF40210348FFF786FD89
:100D40000028F9D0204670BD00380140FFF77EFF33
:100D5000FFF704FB4FF4165000F022F8FFF7A4FB56
:100D6000FFF76EFC04460A20FFF7B8FF214606A0F5
:100D7000FFF7ECFD06E008A0FFF7E8FD4FF49670E2
:100D8000FFF786FFF7E700004964203D2025237820
:100D9000200D0A200000000074657374200D0A0005
:100DA00010B586B00446012144F20400FFF702FBAF
:100DB0004FF40070ADF8140003208DF816001820D1
:100DC0008DF8170005A91248FFF736FA4FF4806036
:100DD000ADF8140004208DF8170005A90C48FFF7A2
:100DE0002BFA01940020ADF80800ADF80A00ADF828
:100DF0000C00ADF810000C20ADF80E0001A905485C
:100E0000FFF732FD01210348FFF714FD06B010BDC6
:100E10000008014000380140380E000800000020A2
:100E2000340000006C0900086C0E0008340000203B
:100E3000040400007C09000800A24A04000000002D
:100E4000000000000102030406070809000000007A
:100E500000A00000000000000102030401020304DE
:0C0E600006070809020406080000000054
:0400000508000131BD
:00000001FF
