:020000040800F2
:10000000380400204901000839030008E102000813
:1000100035030008BD010008570A00080000000071
:10002000000000000000000000000000CD060008F5
:10003000C101000800000000C1030008E10700083A
:100040006301000863010008630100086301000800
:1000500063010008630100086301000863010008F0
:1000600063010008630100086301000863010008E0
:1000700063010008630100086301000863010008D0
:1000800063010008630100086301000863010008C0
:1000900063010008630100086301000863010008B0
:1000A00063010008630100086301000863010008A0
:1000B0006301000863010008630100086301000890
:1000C0006301000863010008630100086301000880
:1000D0006301000845080008630100086301000887
:1000E0006301000863010008630100086301000860
:1000F0006301000863010008630100086301000850
:10010000630100086301000863010008630100083F
:10011000630100086301000863010008630100082F
:10012000630100086301000863010008630100081F
:10013000DFF810D000F030F800480047F10C00085C
:10014000AFF3008038040020064880470648004787
:10015000FEE7FEE7FEE7FEE7FEE7FEE7FEE7FEE777
:10016000FEE7FEE7E50700083101000830B50B4661
:10017000014600202022012409E021FA02F59D42D7
:1001800005D303FA02F5491B04FA02F52844151EAB
:10019000A2F10102F1DC30BD064C074D06E0E0683B
:1001A00040F0010394E8070098471034AC42F6D3BE
:1001B000FFF7C2FFD00D0008F00D000800BFFEE7FA
:1001C00070472DE9F041024600250026002000235B
:1001D0000024002791F803C00CF00F0591F803C02C
:1001E0000CF0100CBCF1000F03D091F802C04CEAE7
:1001F000050591F800C0BCF1000F31D01468002053
:100200002BE04FF0010C0CFA00F3B1F800C00CEA3F
:1002100003069E4220D183004FF00F0C0CFA03F727
:10022000BC4305FA03FC4CEA040491F803C0BCF19A
:10023000280F06D14FF0010C0CFA00FCC2F814C0D4
:100240000AE091F803C0BCF1480F05D14FF0010C52
:100250000CFA00FCC2F810C0401C0828D1D314606E
:10026000B1F800C0BCF1FF0F34DD546800202EE06F
:1002700000F1080C4FF0010808FA0CF3B1F800C0C7
:100280000CEA03069E4221D183004FF00F0C0CFABA
:1002900003F7BC4305FA03FC4CEA040491F803C0DD
:1002A000BCF1280F05D100F1080C08FA0CF8C2F8CF
:1002B000148091F803C0BCF1480F07D100F1080C7D
:1002C0004FF0010808FA0CF8C2F81080401C08280A
:1002D000CED35460BDE8F081416170470161704741
:1002E00000BFFEE708B50121242000F06BF84FF4B1
:1002F0008070ADF8000010208DF8030003208DF809
:10030000020069460948FFF75CFF4FF48071074817
:10031000FFF7E4FF0420ADF8000069460448FFF74A
:1003200050FF04210248FFF7D9FF08BD0008014033
:100330000014014000BFFEE77047000070B50021C7
:1003400000230F22C47804B3154C246804F4E0643D
:10035000C4F5E064210AC1F10403CA40447804FAF8
:1003600003F184781440214309010E4C0678A1550D
:10037000047804F01F050124AC4005786D11AD0030
:1003800005F1E025C5F8004109E0047804F01F05F7
:100390000124AC40044D0678761145F8264070BD26
:1003A0000CED00E000E400E080E100E002490143E0
:1003B000024A1160704700000000FA050CED00E0F1
:1003C0007047000029B1064A92690243044B9A61C2
:1003D00004E0034A92698243014B9A61704700002E
:1003E0000010024030B500210022002400232D4DD2
:1003F0006D6805F00C0121B1042905D0082923D12D
:1004000005E0294D056022E0274D05601FE0254DE0
:100410006D6805F47012234D6D6805F48034022573
:1004200005EB92421CB9214D554305600BE01D4D73
:100430006D6805F400351DB11C4D5543056002E0A3
:10044000194D5543056002E0174D056000BF00BF20
:10045000144D6D6805F0F0010909154D6B5C0568D8
:10046000DD4045600F4D6D6805F4E061090A104DEF
:100470006B5C4568DD4085600A4D6D6805F4605130
:10048000C90A0B4D6B5C4568DD40C560054D6D6864
:1004900005F44041890B074D6B5CC568B5FBF3F56E
:1004A000056130BD0010024000127A0000093D00D5
:1004B000200000203000002000B587B0012141F26B
:1004C0000400FFF77FFF10208DF81B000420ADF81B
:1004D000180003208DF81A0006A92148FFF771FEC5
:1004E00010211F48FFF7FAFE18208DF81B00A020EE
:1004F000ADF8180003208DF81A0006A91848FFF778
:1005000060FE04208DF81B004020ADF8180006A9FD
:100510001348FFF756FE0020ADF810000120ADF89B
:100520000C000220ADF80A000020ADF80800ADF87C
:100530001400ADF804004FF48270ADF806004FF4DB
:100540000070ADF80E000020ADF8120001A90548BA
:1005500000F060F80121034800F042F807B000BD48
:10056000000801400030014010B504464FF48050AF
:100570001949086000BF0221184800F03DF8002822
:10058000F9D015490868411E134A116020B90020AE
:1005900000F07CF8C0B210BD2146104800F038F8D9
:1005A0004FF480500C4908600AE00B490868411E6E
:1005B000094A116020B9012000F068F8C0B2EAE7EA
:1005C0000121064800F018F80028EED0034800F09A
:1005D0001CF8C0B2DFE700001C0000200030014022
:1005E00021B1028842F04002028004E002884FF606
:1005F000BF731A40028070470246002013890B40E7
:100600000BB1012000E00020704701468889704747
:100610008181704710B50022028802F441520B8894
:100620004C8823438C882343CC8823430C89234361
:100630004C8923438C892343CC8923431A4302806A
:10064000838B4FF2FF74234083830B8A038210BD98
:1006500010B504210C48FFF73FFE9F20FFF784FFF1
:100660000020FFF781FF04040020FFF77DFF44EA2C
:1006700000240020FFF778FF044304210248FFF71D
:100680002DFE204610BD00000008014010B50446B4
:10069000214602A000F0E2F9002010BD3C3C2D46AE
:1006A0004C4153482D4552524F522D3E3E205350FF
:1006B0004920B5C8B4FDB3ACCAB1216572726F727E
:1006C000436F6465203D2025640A0000704710B523
:1006D00000F002F810BD00000CB500200190009061
:1006E0003348006840F480303149086000BF30482A
:1006F000006800F4003000900198401C01900098C0
:1007000018B90198B0F5A06FF1D12948006800F43C
:10071000003010B10120009001E00020009000980E
:10072000012843D12348006840F0100021490860A7
:100730000846006820F0030008600846006840F0A2
:10074000020008601A484068194948600846406835
:1007500048600846406840F4806048600846406849
:1007600020F47C1048600846406840F4E810486077
:100770000846006840F08070086000BF0C480068C0
:1007800000F000700028F9D00948406820F003000C
:10079000074948600846406840F00200486000BFD2
:1007A0000348406800F00C000828F9D10CBD000097
:1007B0000010024000200240042808D14FF0E02140
:1007C000096941F004014FF0E022116107E04FF0A8
:1007D000E021096921F004014FF0E0221161704726
:1007E0007047000010B51348006840F0010011493F
:1007F000086008464068104908400E4948600846AD
:1008000000680E4908400B4908600846006820F45B
:10081000802008600846406820F4FE0048604FF4DD
:100820001F008860FFF753FF4FF000600449086025
:1008300010BD0000001002400000FFF8FFFFF6FEB0
:1008400008ED00E010B540F225510A4800F03EF8EE
:1008500001280ED1074800F0F5F80749087008464E
:100860000178044800F0F3F840F22551014800F007
:1008700005F810BD003801401400002010B500221A
:10088000002340F66A14A14200D100BF0A120124DD
:100890009440A3B2DC43048010BD21B1828942F4AC
:1008A0000052828104E082894DF6FF731A408281F2
:1008B000704702460020B1F5007F00D100BF1388C9
:1008C0000B400BB1012000E00020704770B50246DC
:1008D000002400230025002040F66A16B14200D112
:1008E00000BFC1F3421501F01F03012606FA03F30E
:1008F000012D02D19689334006E0022D02D1168ADD
:10090000334001E0968A33400C12012606FA04F4C3
:100910001688344013B10CB1012000E0002070BDF6
:10092000F0B50346002400260025002040F66A1793
:10093000B94200D100BF1846C1F3421401F01F06AE
:10094000012707FA06F5012C01D10C3004E0022C36
:1009500001D1103000E014301AB107682F4307604E
:1009600002E00768AF430760F0BD00002DE9F047E3
:1009700086B005460E460024A24600BFA1460027C9
:10098000B08900B100BF2F462C8A4CF6FF7004409E
:10099000F08804432C82AC894EF6F3100440B088F2
:1009A00031890843718908430443AC81AC8A4FF60E
:1009B000FF400440B0890443AC8201A8FFF712FD58
:1009C0001F48874202D1DDF810A001E0DDF80CA03D
:1009D000A88900F4004040B10AEBCA0000EB0A10FD
:1009E00031684900B0FBF1F807E00AEBCA0000EB00
:1009F0000A1031688900B0FBF1F86420B8FBF0F010
:100A000004012009642101FB1089A88900F4004039
:100A100040B1322000EBC900B0FBF1F000F007005C
:100A2000044308E0322000EB09106421B0FBF1F030
:100A300000F00F0004432C8106B0BDE8F0870000F1
:100A40000038014001468888C0F308007047C1F3B0
:100A500008028280704700BFFEE700000FB4054B1C
:100A600010B503A9044A029800F018F810BC5DF80C
:100A700014FB0000CD0C00083400002002E008C880
:100A8000121F08C1002AFAD170477047002001E008
:100A900001C1121F002AFBD1704700002DE9FF4F52
:100AA00089B09B460446002506E025280BD05A460F
:100AB0000B999047641C6D1C20780028F5D10DB06F
:100AC0002846BDE8F08F0027B8460122474900E0DC
:100AD000074314F8013F203B02FA03F00842F7D124
:100AE00020782E2819D114F8010F47F004072A287E
:100AF0000ED06FF02F022078A0F1300109290CD818
:100B000008EB880102EB410100EB0108641CF2E7ED
:100B10000A98641C50F8048B0A9020780028CED0E4
:100B2000642808D0692806D075281ED05A460B992B
:100B300090476D1C58E00A994FF00A0901C90A91C3
:100B4000002802DA40422D2102E0390504D52B218C
:100B50008DF82010012103E0F90704D02021F7E7E8
:100B60008A4608AE0DE00021FAE70A994FF00A091B
:100B700001C90A91F7E74946FFF7F8FA303106F85C
:100B8000011D0028F7D1ADEB060000F12009780720
:100B900001D44FF00108C84502DDA8EB090000E0D0
:100BA00000208046002706E008A85A46C05D0B9941
:100BB00090476D1C7F1C5745F6DB04E030205A46F9
:100BC0000B9990476D1CB8F10001A8F10108F5DC04
:100BD00005E016F8010B5A460B9990476D1CB9F1C8
:100BE0000001A9F10109F4DC641C65E70928010092
:100BF00010B56FF00400FFF7DFFD0A4800680A49EE
:100C0000B0FBF1F0094908700846007800EB40019C
:100C1000C1EBC0104FF6FF7101EAC0000449088023
:100C200010BD00000000002000127A001600002015
:100C3000180000200146114A12884A434FF0E02371
:100C40005A6100229A611A46126942F001021A6141
:100C500000BF4FF0E022106900F001021AB100F469
:100C60008032002AF5D04FF0E022126922F0010212
:100C70004FF0E0231A6100229A61704718000020AB
:100C80000146114A12784A434FF0E0235A6100228C
:100C90009A611A46126942F001021A6100BF4FF0D0
:100CA000E022106900F001021AB100F48032002A3B
:100CB000F5D04FF0E022126922F001024FF0E0235C
:100CC0001A6100229A6170471600002070B5044630
:100CD0000D46E1B20548FFF7BAFE00BF8021034888
:100CE000FFF7E7FD0028F9D0204670BD003801402D
:100CF000FFF77EFFFFF7F6FA4FF4A060FFF756FB11
:100D00004FF4165000F014F8FFF7D6FBFFF7A0FCE5
:100D10000A20FFF7B5FF06E003A0FFF79FFE4FF4A0
:100D2000FA70FFF787FFF7E774657374200D0A0008
:100D300010B586B00446012144F20400FFF742FBDF
:100D40004FF40070ADF8140003208DF81600182041
:100D50008DF8170005A91C48FFF733FA4FF480609F
:100D6000ADF8140004208DF8170005A91648FFF708
:100D700028FA25208DF8000001208DF803000220BC
:100D80008DF801008DF802006846FFF7D7FA01944C
:100D90000020ADF80800ADF80A00ADF80C00ADF881
:100DA00010000C20ADF80E00012240F2255107483A
:100DB000FFF7B6FD01A90548FFF7D8FD012103485B
:100DC000FFF76BFD06B010BD000801400038014080
:100DD000F00D000800000020380000007C0A000828
:100DE000280E000838000020000400008C0A0008CB
:100DF00000A24A04000000000000000001020304F9
:100E000006070809000000000000000000A0000024
:100E100000000000010203040102030406070809A0
:080E20000204060800000000B6
:0400000508000131BD
:00000001FF
